:400000000080002011000000A90A0000A90A000008B5044B1A6803F53F5302331A6000F04BFD00BFFA46004010B5054C237833B9044B13B10448AFF300800123237010BDC9
:400040007081FF1F000000006C220000084B10B51BB108490848AFF300800848036803B910BD074B002BFBD0BDE81040184700BF000000007481FF1F6C220000C880FF1F96
:40008000000000000122014B1A7070478C81FF1F024B01225A709A70704700BF8C81FF1F0122014B1A7070471C82FF1F0000000080B562B600F078FE00F0EAFE01F0DAFAC4
:4000C00001F0C4F800F0D6FF01F078FC01F0E4FBA74800F0C7FE0321002000F073FEA54800F000FE0321022000F06CFEA24800F0F9FD0321084600F065FEA04800F0F2FD39
:400100009F4800F015FF9F4800F0DCFF9E4800F037FF9E4B1B78012B40F067819C4B1B78002B40F0628100F0BBFEC0B2994B1870432833D1954BDB7883BB4FF4166001F08D
:4001400045FA012000F0E0FD0321022000F03AFE914800F0C7FD40F2DC5001F0D7F9012000F0D2FD0221002000F02CFE814800F0B9FD0321022000F025FE884800F0B2FDC4
:400180000321084600F01EFE7C4800F0ABFD01227E4BDA700022824B1A7061E0412831D17A4BDB78012B2DD140F29B1001F00EFA012000F0A9FD0321022000F003FE794843
:4001C00000F090FD40F2DC5001F0A0F9012000F09BFD0321002000F0F5FD664800F082FD0321022000F0EEFD6F4800F07BFD0321084600F0E7FD614800F074FD0022634B4E
:40020000DA702DE042282BD1604BDB78012B27D1012000F079FD0021084600F0D3FD634800F060FD0021012000F0CCFD604800F059FD0021022000F0C5FD5E4800F052FD6E
:400240000021032000F0BEFD5B4800F04BFD4FF4FA6001F05BF94D4B01221A710022DA704A4B1B79012B40F0BD804A4B1B78092B2DD8464A527952BB454C626802EB8202C9
:4002800051000B4463600621012000F09BFDA08800F0B6FD002000F033FD3E4B1B78232B0ED1626862B1B42A0AD80122374B5A7101F07CFBB0FA80F0400901F06BFB91E017
:4002C000232B40F08F800022314B5A608AE0092B24D82E4A92790ABB2C4CA26802EB820251000B44A3600621022000F06BFD208900F086FD252000F003FD264B1B78232B5D
:4003000006D1A26822B1B42A02D80122A27169E0232B67D100221D4B9A6063E0092B4DD81A4A127B002A49D1194CA26802EB820251000B44A3600621032000F043FD208951
:4003400000F05EFD6D2000F0DBFC124B1B78232B07D1A2682AB13C2A03D801220B4B1A7340E0232B3ED10022094B9A603AE000BFA023000070220000842200009822000021
:400380008500000091000000A10000008C81FF1FCC80FF1FFC81FF1FA8220000B82200001C82FF1FCC220000DC220000E8220000002300000823000010230000442B11D12E
:4003C000B34B5B79012B0DD1B14B9B79012B09D1AF4B1B7B012B05D10122AE4B1A700022AB4B1A710022AA4B1A70AA4B1B78012B08D1A94A1370A94A1370A94A137000227E
:40040000A44B1A70A54B1B78012B0CD1012000F07BFC0021012000F0D5FCA24800F062FC00229E4B1A709C4B1B78012B5ED1984B5B78012B5AD10022954B5A709A4A138832
:4004400001339BB21380B3F57A7F17D101F0AEFAB0FA80F0400901F09DFA0022924B1A80924A138801339BB213803C2B06D100228E4B1A808E4A1388013313808C4D2888A1
:400480008C4CA4FB00300021C0F3C70001F01AFA2A88A4FB0213DB0803EB83035800101A0121C0B201F00EFA804E3088A4FB00300221C0F3C70001F005FA3388A4FB0324C6
:4004C000E40804EB84046000181A0321C0B201F0F9F92A886F4B9B689A4207D10122764B1A7000236C4A1370744A1370734B1B78012B06D10021012000F064FC704800F0D2
:40050000F1FB674B1B78012B7FF4FAAD604B9B78012B40F081805E4A00239370D38901339BB2D381674AA2FB0312D20802EB820202EB82029B1A9BB2002B6DD1012001F08E
:400540004DFA00F091FE012000F09EFE0028FAD000F0ACFE4E4C208200F0B4FE208200F08BFE228A636913446361002001F036FA00F07AFE012000F087FE0028FAD000F0CF
:4005800095FE434C208300F09DFE208300F074FE228BE3691344E361E289B2F5FA7F3BD10025E58162694348A0FB021212096261A0FB03131809E061424BA3FB02231B09C6
:4005C000414F3B8001F06AFB2FA3D3E9002301F0DBFB3E4E01F0EAFD30802946022000F0F1FB3B4800F07EFB388800F009FC394800F078FB65612946032000F0E3FB364838
:4006000000F070FB308800F0FBFB284600F078FB324800F067FBE5612C4B18881D4B9989884208D91A4B93F8203023B90122184B83F8212003E00022154B83F82120224BA6
:400640001A88144BDB899A4208D9114C94F8204024B901250E4C84F8225003E000250C4C84F822509A427FF64BAD88427FF648AD074B93F82030002B7FF442AD0122044BCD
:4006800083F823203CE500BF3BDF4F8D976EA23F8C81FF1FCC80FF1F0282FF1F0D82FF1FF481FF1F18230000F881FF1F0882FF1FFE81FF1FCDCCCCCC0E82FF1F0C82FF1FA7
:4006C0002C2300001F85EB510A82FF1FF681FF1F402300004C2300005023000058230000FEE700BFF0B40022174611E050F82760F3B226F0FF0608E001EB420511F812400F
:400700006D78A5550132013BDBB2002BF4D101371C2FEBD9F0BC704708B50A46002101F09CFD08BDF8B5134B1B78DBB2124E3478E4B2124F3D78EDB203F00701104A11706F
:400740001B090132137044F00303337045F003033B7040239A321370023213702022094B1A700A2000F0E8FE3D7034704422064B1A70F8BDCF010049F8460040F9460040F6
:400780006E5800402B5B00407658004008B501F059FD08BD38B5454C2578EDB20122444B1A801823434A1370172102321180023213707421023211800232137040F2D72255
:4007C0003D4B1A801D2202331A7004223B493C48FFF7DCFF02223B4B1A7008224FF040231A70F32203F20A331A70032323708422354B1A700522013B1A70344C04E04FF482
:40080000F07001F0F9F8013C24B1314B1B7813F0200FF4D0254B1D700322A3F593631A702C4B1B78DBB22C4A137008222B4B1A8041F25122023B1A80002419250CE0284B1D
:400840001B7803F0010343EA440404F003044FF4F07001F0D1F8013D0DB1032CEFD115B90320FFF73DFF1F4B4FF480721A8007221A7000221C490A704820023108701A7089
:400880000222033B1A7004220A331A70174A137843F00F031370013A137843F001031370013A137843F08003137038BD9846004080400040824000408C400040F8040048C7
:4008C000004100400043004009430040A08601000843004008010049A146004022420040254200400440004006400040A2430040012814D810B44000C0B2094B53F8201069
:400900001A18147C0A7822430A700130C0B253F820201844017C13780B43137010BC704760230000012816D810B44000C0B20A4B53F820101A18147C0A7822EA04020A70FE
:400940000130C0B253F820201844017C137823EA0103137010BC70476023000038B572B6384A137843F00403137000240BE0364863001A19510001440A46098B5069FFF720
:40098000CBFE0134E4B2062CF1D930494FF09040FFF7A8FE04212E48FFF7BEFE04212D48FFF7BAFE04222C492C48FFF7EFFE2C4A137843F0020313701032137843F002033B
:4009C0001370284C237843F040032370A2F58632513A137843F010031370082222492348FFF7D4FE082222492248FFF7CFFE082221492248FFF7CAFE082221492148FFF7F5
:400A0000C5FE082220492148FFF7C0FE0A2220492048FFF7BBFE204A137843F0080313701E4D61232B70FFF7B5FE81232B7001221B4B1A70FFF776FE0E2221461948FFF704
:400A4000A5FE38BDE846004060230000740000480076004008760040FC0400481076004003500140A0430040C404004802510040CC040048C2510040D4040048F251004047
:400A8000DC04004812510040E404004822510040EC04004830510040224300400048004004000840B043004008B501F09FFB03680C2B00D1FEE7FEE708B5104E104D16E0F0
:400AC00029686B68AC68002204E051F8040B43F8040B0432A242F8D1E868002203E0002143F8041B04328242F9D11035013E002EE6D101F081FBFFF7DBFAFEE701000000D8
:400B00005826000008B5114A114B1A60114A136843F40073136000230AE0032B03D80E4A52F8231000E00D490D4A42F8231001332F2BF2D90B4B1A780B4B1A70084A0B4BA8
:400B40001A60FFF70BFF00F013FC08BD0004FA050CED00E014ED00E000000000A90A00000080FF1FBC760040C080FF1F08ED00E010B50B4C237803F09F032370237803F017
:400B8000F00323702378184340F010002070012000F0D2FC237803F0EF03237010BD00BF2051004038B505460E4C237843F020032370237803F0BF032370002000F0BCFCF9
:400BC000237803F0F003237023781D4345F010052570012000F0B0FC237803F0EF03237038BD00BF2051004070B5354B1A7802F08002D2B21A7033490A7802F0F00242F005
:400C00000F020A7001310A7802F0F0020A7001310A7802F0F0020A701A7802F0DF021A701A7842F040021A704FF4CA76002000F083FC234D2B7843F010032B70012000F06F
:400C40007BFC214B1C78E4B22B7803F0EF032B70002000F071FC04F00804E4B22B7843F010032B70012000F067FC2B7803F0EF032B7014B90A2000F05FFC013E0CB1002EAA
:400C8000D4D10F4A137803F0BF031370137803F08003DBB213700232137803F0F00313700132137803F0F00343F00F0313700132137803F0F00343F00F03137070BD00BF76
:400CC00020510040225100402151004010B50446FFF78AFF2009FFF765FF04F00F00FFF761FF10BD38B505460078012404E0FFF7EDFF285D0134E4B20028F8D138BD00BF17
:400D000008B5FFF7E3FF08BD10B50446FFF76CFF2009FFF72DFF04F00F00FFF729FF10BD08B5282000F0F2FB0320FFF721FF052000F0ECFB0320FFF71BFF0F2000F0E6FB66
:400D40000320FFF715FF012000F0E0FB0220FFF70FFF052000F0DAFB0620FFF7D5FF0E20FFF7D2FF2C20FFF7CFFF0820FFF7CCFF0120FFF7C9FF0C20FFF7C6FF0320FFF78D
:400D8000C3FF052000F0C2FB014800F06BF808BDA023000008B50C20FFF7B6FF0122014B1A7008BDCC81FF1F08B5054B5B7823B9FFF7B6FF0122024B5A70FFF7EBFF08BD78
:400DC000CC81FF1F08B5032819D8DFE800F002070D1381F08000FFF797FF08BDA1F14000C0B2FFF791FF08BDA1F16C00C0B2FFF78BFF08BDA1F12C00C0B2FFF785FF08BDDA
:400E000010B584B000238DF80E30092211E0144BA3FB0013DB081C4603EB83035900431ADBB2303304A9114401F80C3C2046013AD2B20928EBD80A4BA3FB0013DB0803EB15
:400E400083035900431ADBB2303304A9114401F80C3C01AB9818FFF745FF04B010BD00BFCDCCCCCC38B50546FFF7BEFE4020FFF74BFF002404E0285DFFF728FF0134E4B2FD
:400E80003F2CF8D9FFF7B0FE8020FFF73DFF38BD08B50F2000F050FA002000F041FA08BD30B585B0144B6C46186859689A68DB680FC400F04DFA00F003040F2000F030FA5A
:400EC000002000F039FA0A2000F036FB00F040FAC0F381050F2000F02FFA002000F020FA0A2000F029FB04AB03EB84042C4414F8100C05B030BD00BFE0230000014B1B6861
:400F00001864704708ED00E04001C0B2014B1870704700BF00E400E00122014B1A60704700E100E00122014B1A60704780E100E010B50446FFF7F6FF2046FFF7DFFF07204B
:400F4000FFF7E2FFFFF7E8FF10BD00BF014B1B681865704708ED00E04001C0B2014B1870704700BF04E400E01022014B1A60704700E100E01022014B1A60704780E100E034
:400F800010B50446FFF7F6FF2046FFF7DFFF0720FFF7E2FFFFF7E8FF10BD00BF084A137843F0010313701032137843F00103137002F64D32137843F001031370704700BF46
:400FC000A3430040014B1870704700BF034F004010B50446094B1B7813F0010F02D0002000F092FA054B1A7842F001021A70044A14801A7802F0FE021A7010BDA3430040F4
:40100000064F0040014B1880704700BF044F004008B5164A137803F0010313700232137803F0FC031370013A137843F0010313700F4B1A7802F0CF021A701A7842F0300229
:401040001A701A7802F0F0021A701A7842F00F021A7042F6DF60FFF7D5FF42F6DF60FFF7B7FF0020FFF7AEFF08BD00BF004F00400B4F004008B5054B1B7823B9FFF7C8FF7A
:401080000122024B1A70FFF789FF08BDCE81FF1F014B1B685864704708ED00E04001C0B2014B1870704700BF01E400E00222014B1A60704700E100E00222014B1A607047AA
:4010C00080E100E010B50446FFF7F6FF2046FFF7DFFF0720FFF7E2FFFFF7E8FF10BD00BF08B50A280FD00C2802D0082806D102E04FF4805209E04FF4807206E0002000F02E
:4011000003FA002201E04FF480620021094B198042F2107303FB02F303F6C413064A82FB0302DB17C3EBE223044A1360044B198008BD00BF2682FF1FAD8BDB682082FF1F5D
:401140002482FF1F10B500F05FFC04461E4A137843F0020313701032137843F0020313701A3A137843F0010313701032137843F00103137002F5AA521A32137843F00303F8
:4011800013701822114B1A70013B1A7842F040021A701A7802F0FC021A70C822053B1A700222A3F59753123B1A70094A137843F0080313700A2000F0BFF90422054B1A6022
:4011C000204600F025FC10BDAB4300400E5900402F5B004080E200E010B504460A280DD00C2802D0082804D101E0C22207E0422205E0002000F088F9C22200E08222034B65
:401200001A702046FFF76CFF10BD00BF0A59004008B5102000F0A2F80721022000F0AAF90749022000F092F9064A137843F0060313700C20FFF7D0FF0022034B1A8008BD93
:401240001D130000095900402882FF1F08B5054B1B7823B9FFF7DCFF0122024B1A70FFF771FF08BDCF81FF1F024A137843F001031370704708590040024A137803F0FE0340
:40128000137070470859004010B5074B1B7813F0010401D10028F8D024B1012000F04CF9014B1B78204610BD09590040034B188880B2034B1B88C01A00B27047A25B00406F
:4012C0002482FF1F10B4124B1B881BB233B1104B1B881BB203EB83035C0001E00D4B1C680D4B1988411A09B242F2107303FB01F2002903DD04EBD470401003E004EBD47004
:4013000040104042831893FBF4F000B210BC70472682FF1F2082FF1F2882FF1F704700BF044A137803F00F030001C0B218431070704700BF30510040044A137803F0F003B3
:4013400000F00F0018431070704700BF30510040014B1878704700BF6C640040034B1A7800F0F80010431870704700BF024100400B4A7F2313708021517007E0DA0002F1CE
:40138000804202F5F042013BDBB21370002BF5D1DB0003F1804303F5F04300221A707047E080FF1F172815D831B103010A495A5C42F020025A5405E0030107495A5C02F069
:4013C000DF025A540001044A835C43F00103835400207047012070471070004017280BD80001064A835C03F0F103490001F00E011943815400207047012070471070004091
:4014000041F6FF73994201D14FF4005141F6FF739A4201D14FF40052172808D8C00000F1804000F5EC408180C280002070470120704700BF172805D8034B03EB0010417259
:4014400000207047012070471070004017281BD810B4C00000F1804404F5EC44D201D2B201F07F01114321709DF804201201D2B203F00F03134363709DF8083003F00F036C
:40148000A3700020E07001E00120704710BC704710B500F0B9FA0A4B5B78182B0BD9084A1478013B5370E30003F1804303F5F0431B78137000E0FF2400F0AAFA204610BD34
:4014C000E080FF1F10F0800F0CD111F4704F0BD1C00000F1804000F5F04001808270C37000207047012070470120704710F0800F08D1C00000F1804000F5F0408180C2805E
:40150000002070470120704701BE704710B5044605E0084B186800F06FFAA4F50044B4F5004FF6D8034B586800FB04F000F064FA10BD00BFE880FF1F08B5034B1B7A00FBCB
:4015400003F000F059FA08BDE880FF1F70B504460E46074B1D681F2802D90020FFF7D4FF04F01F04103455F8240045F8246070BD08ED00E038B504460D46072902D9002001
:40158000FFF7C2FF1F2C02D90020FFF7BDFF04F01F0000F1604000F564406D01EDB2057038BD00BF024A137843F08003137070477C640040014B1880704700BF1868004008
:4015C000014B1880704700BF98680040014B1880704700BF58680040014B1870704700BF8A640040014B1878704700BF6A640040014B188880B27047B868004008B501E04C
:40160000FFF7F6FFFFF7EEFF10F0100FF8D108BD08B5164A137803F0C00343F0090313702032137843F0010313700132137843F00103137044F61F60FFF7BCFF44F61F60DD
:40164000FFF7BEFF4FF4C870FFF7C0FF0020FFF7C3FF00F0D9F9064A137843F01003137000F0D6F9FFF7CAFF08BD00BF7C6400409A64004008B5054B1B7823B9FFF7C8FFB0
:401680000122024B1A70FFF78DFF08BDD081FF1F10B54FF4804341F6FF720121084600F01FF9504B1870FF2808D13FE0FFF7F0FE4C4B234418710134E4B200E00024072CE0
:4016C000F4D9002419E014F0010F0AD1454A1019631C1A440123127919460079FFF7F2FE09E0404A1019631C1A440123127919460079FFF7E7FE0134E4B2062CE3D93948FA
:40170000012302791946C07AFFF7DCFE00240BE0344B23443449214446F27A4289B21879FFF7E4FE0134E4B2072CF1D94FF4804341F6FF720121084600F0F0F8294B187375
:40174000FF2808D130E0FFF7A3FE264B234418740134E4B200E00024032CF4D900230AE0204AD0185C1C22440523127C0121007CFFF7A8FEE3B2022BF2D91A480523027CD1
:401780000121C07CFFF79EFE00240BE0154B23441649214446F2714289B2187CFFF7A6FE0134E4B2032CF1D94FF4804341F6FF720121084600F0D0F80A4B1875FF2810D0C8
:4017C000FFF766FE0246074C607501230421FFF779FE04F1180146F2214289B2607DFFF785FE10BDD481FF1FF880FF1F2C82FF1F10B50D4C21792078FFF71CFE217C207BF5
:40180000FFF718FE617D207DFFF714FE01212078FFF7C8FD0121207BFFF7C4FD0121207DFFF7C0FD10BD00BFD481FF1F08B5FFF7DFFF0023044A13701032137001235A32C5
:401840001370024A137708BD11640040D481FF1F002304E00021034AD1540133DBB2032BF8D970472C82FF1F08B5FFF7F1FF094B5B7F23B9FFF70CFF0122064B5A7700232F
:4018800005E0044A1A44FF2111760133DBB2032BF7D908BDD481FF1F08B5054B9B7F23B9FFF7E2FF0122024B9A77FFF7BFFF08BDD481FF1F00F00F00014B185C704700BF7D
:4018C000F0230000092808D8032906D810B50C46FFF7F0FF014B185510BD70472C82FF1FF0B583B016461F460B4C012525700023019300930A4601462846FFF7A7FD3A46A1
:4019000031462078FFF77CFD02212078FFF766FD207803B0F0BD00BF0881FF1FF0B583B016461F460B4C022525700023019300932B460A4601462846FFF788FD3A463146D9
:401940002078FFF75DFD29462078FFF747FD207803B0F0BD0981FF1FF0B583B016461F460B4D00242C700194009423460A4601462046FFF76BFD3A4631462878FFF740FD36
:4019800002212878FFF72AFD287803B0F0BD00BF0A81FF1F044A137803F0FD03400000F00200184310707047C0510040024B1878C0F34000704700BFC151004010B500247D
:4019C00004E02046FEF7AEFF0134E4B2012CF8D9FF22014B1A7010BD0B81FF1F10B50446FFF7ECFF2046FEF783FF014B1C7010BD0B81FF1F000000000230800803D000BF5C
:401A000001380046FCD17047EFF3108072B6704780F31088704700BF81F0004102E000BF83F0004330B54FEA41044FEA430594EA050F08BF90EA020F1FBF54EA000C55EA99
:401A4000020C7FEA645C7FEA655C00F0E2804FEA5454D4EB5555B8BF6D420CDD2C4480EA020281EA030382EA000083EA010180EA020281EA0303362D88BF30BD11F0004F6A
:401A80004FEA01314FF4801C4CEA113102D0404261EB410113F0004F4FEA03334CEA133302D0524263EB430394EA050F00F0A780A4F10104D5F1200E0DDB02FA0EFC22FA0A
:401AC00005F2801841F1000103FA0EF2801843FA05F359410EE0A5F120050EF1200E012A03FA0EFC28BF4CF0020C43FA05F3C01851EBE37101F0004507D54FF0000EDCF1BE
:401B0000000C7EEB00006EEB0101B1F5801F1BD3B1F5001F0CD349085FEA30004FEA3C0C04F101044FEA445212F5800F80F09A80BCF1004F08BF5FEA500C50F1000041EBF5
:401B4000045141EA050130BD5FEA4C0C404141EB010111F4801FA4F10104E9D191F0000F04BF01460020B1FA81F308BF2033A3F10B03B3F120020CDA0C3208DD02F1140C33
:401B8000C2F10C0201FA0CF021FA02F10CE002F11402D8BFC2F1200C01FA02F120FA0CFCDCBF41EA0C019040E41AA2BF01EB0451294330BD6FEA04041F3C1CDA0C340EDC6C
:401BC00004F11404C4F1200220FA04F001FA02F340EA030021FA04F345EA030130BDC4F10C04C4F1200220FA02F001FA04F340EA0300294630BD21FA04F0294630BD94F092
:401C0000000F83F4801306BF81F480110134013D4EE77FEA645C18BF7FEA655C29D094EA050F08BF90EA020F05D054EA000C04BF1946104630BD91EA030F1EBF00210020E2
:401C400030BD5FEA545C05D14000494128BF41F0004130BD14F580043CBF01F5801130BD01F0004545F0FE4141F470014FF0000030BD7FEA645C1ABF194610467FEA655C3F
:401C80001CBF0B46024650EA013406BF52EA033591EA030F41F4002130BD00BF90F0000F04BF0021704730B54FF4806404F132044FF000054FF0000150E700BF90F0000F0F
:401CC00004BF0021704730B54FF4806404F1320410F0004548BF40424FF000013EE700BF42004FEAE2014FEA31014FEA02701FBF12F07F4393F07F4F81F06051704792F05E
:401D0000000F14BF93F07F4F704730B54FF4607401F0004521F0004120E700BF50EA010208BF704730B54FF000050AE050EA010208BF704730B511F0004502D5404261EB16
:401D400041014FF4806404F132045FEA915C3FF4DCAE4FF003025FEADC0C18BF03325FEADC0C18BF033202EBDC02C2F1200300FA03FC20FA02F001FA03FE40EA0E0021FA29
:401D800002F11444C1E600BF70B54FF0FF0C4CF4E06C1CEA11541DBF1CEA135594EA0C0F95EA0C0F00F0DEF82C4481EA030621EA4C5123EA4C5350EA013518BF52EA0335D6
:401DC00041F4801143F4801338D0A0FB02CE4FF00005E1FB02E506F00042E0FB03E54FF00006E1FB03569CF0000F18BF4EF0010EA4F1FF04B6F5007F64F5407404D25FEAB7
:401E00004E0E6D4146EB060642EAC62141EA55514FEAC52040EA5E504FEACE2EB4F1FD0C88BFBCF5E06F1ED8BEF1004F08BF5FEA500E50F1000041EB045170BD06F00046CA
:401E400046EA010140EA020081EA0301B4EB5C04C2BFD4EB0C0541EA045170BD41F480114FF0000E013C00F3AB8014F1360FDEBF002001F0004170BDC4F10004203C35DAA0
:401E80000C341BDC04F11404C4F1200500FA05F320FA04F001FA05F240EA020001F0004221F0004110EBD37021FA04F642EB06015EEA430E08BF20EAD37070BDC4F10C043B
:401EC000C4F1200500FA04F320FA05F001FA04F240EA020001F0004110EBD37041F100015EEA430E08BF20EAD37070BDC4F1200500FA05F24EEA020E20FA04F301FA05F258
:401F000043EA020321FA04F001F0004121FA04F220EA020000EBD3705EEA430E08BF20EAD37070BD94F0000F0FD101F00046400041EB010111F4801F08BF013CF7D041EA57
:401F4000060195F0000F18BF704703F00046520043EB030313F4801F08BF013DF7D043EA0603704794EA0C0F0CEA135518BF95EA0C0F0CD050EA410618BF52EA4306D1D157
:401F800081EA030101F000414FF0000070BD50EA410606BF1046194652EA430619D094EA0C0F02D150EA013613D195EA0C0F05D152EA03361CBF104619460AD181EA03012B
:401FC00001F0004141F0FE4141F470014FF0000070BD41F0FE4141F4780170BD70B54FF0FF0C4CF4E06C1CEA11541DBF1CEA135594EA0C0F95EA0C0F00F0A7F8A4EB0504D8
:4020000081EA030E52EA03354FEA013100F088804FEA03334FF0805545EA131343EA12634FEA022245EA111545EA10654FEA00260EF000419D4208BF964244F1FD0404F532
:40204000407402D25B084FEA3202B61A65EB03055B084FEA32024FF480104FF4002CB6EB020E75EB030E22BFB61A754640EA0C005B084FEA3202B6EB020E75EB030E22BF37
:40208000B61A754640EA5C005B084FEA3202B6EB020E75EB030E22BFB61A754640EA9C005B084FEA3202B6EB020E75EB030E22BFB61A754640EADC0055EA060E18D04FEA13
:4020C000051545EA16754FEA06164FEAC30343EA52734FEAC2025FEA1C1CC0D111F4801F0BD141EA00014FF000004FF0004CB6E711F4801F04BF01430020B4F1FD0C88BFE4
:40210000BCF5E06F3FF6AFAEB5EB030C04BFB6EB020C5FEA500C50F1000041EB045170BD0EF0004E4EEA113114EB5C04C2BFD4EB0C0541EA045170BD41F480114FF0000E22
:40214000013C90E645EA060E8DE60CEA135594EA0C0F08BF95EA0C0F3FF43BAF94EA0C0F0AD150EA01347FF434AF95EA0C0F7FF425AF104619462CE795EA0C0F06D152EAF2
:4021800003353FF4FDAE1046194622E750EA410618BF52EA43067FF4C5AE50EA41047FF40DAF52EA43057FF4EBAE12E74A0011D212F5001211D20DD56FF47873B3EB6252A6
:4021C0000ED44FEAC12343F0004343EA505323FA02F070474FF00000704750EA013002D14FF0FF3070474FF000007047014B1868704700BF6C81FF1F0E4B70B51E460E4CFC
:402200000025E41AA410A54204D056F8253098470135F8E700F00EFA084B094C1E46E41AA4100025A54204D056F8253098470135F8E770BD402600004026000040260000E9
:402240004826000010B5431E0A44914204D011F8014B03F8014FF8E710BD03460244934202D003F8011BFAE77047000000000000494E43554241444F5241204C495354412F
:402280000000000043202D204345525241522050554552544100000042202D20434F4E4649475552415200005075657274612063657272616461000041202D2041425249F0
:4022C0005220505545525441000000005075657274612061626965727461000043202D204345525241520000496E6772657365206C6F732076616C6F7265733A0000000032
:4023000054454D503A20000048554D453A20000054696D653A200000454E204349434C4F202D204E4F20414252495200524554495245204C4153204D554553545241530085
:4023400068756D656461643D200000002520200054656D703D20000046202020000000001D510040285B00401D510040285B004040042002004F00400C0040510040300046
:4023800000000140001000140140000800400140000A004C0140000200500140200000001C141C000000000000001C000000001C000E0A0E08080000000E0A0C0A0A0000B2
:4023C000000E080C080E0000000E080E020E0000000E080E020E000000040404000400000102034104050642070809432A0023443F065B4F666D7D077F6F777C395E797101
:40240000000000000000000000000000004080003F065B4F666D7D077F6F00000048000000777C585E79713D74101E763855545C7367506D781C1C1D766E5B000000000890
:4024400000777C585E79713D74101E763855545C7367506D781C1C1D766E5B0000000000240000000000000000000012001200003F06DBCFE6EDFD07FFEFF78F390FF9F1E0
:4024800000000200000000000C213F00200000002400000000000000000000000000001000001200120000000012000C0005090000080800120024282D1524000000000036
:4024C00000000000000000000010000C1210000000080000120020102D1524000000000000302000000000200000C00000C000003F06DBCFE6EDFD07FFEF000000C80083FF
:4025000000F78F390FF9F1BDF6091E703836363FF33FF3ED013E3036000009000000000800F7FCD8DEF9F1EFF4001E7000D4D4DCF33FD0EDC01C101C000009000000000066
:4025400090000303030303000303034A00480303FF0C773F8CBBFB0FFF8FCF3FF33FF3C300000800000000003084FF0080030000900003030303030003030000000300425D
:4025800000034A0048030302034800310014240003202303480090A0B4549000000000000041410149814B494140486A48434341094942224B408040B449810000000000CF
:4025C00000C08000000000800000000000000000FF0C773F8CBBFB0FFF8F00000030000700CF3FF33FF3C3FBCC337CC0F0CCCCFFC7FFC7BB03FCC0CC00003300000000305B
:402600000070E060606002A1C000200000480860C19100100070407800A02000000000000001000200040008001000200040008043000000F8B500BFF8BC08BC9E467047EC
:402640004D000000050B0000F8B500BFF8BC08BC9E4670472900000068260000C880FF1FA8000000C000000000000000010000000200000002000000780050000102020324
:402680007F800000070000000000E02EC05D00001800000000366E0100010002000400080010002000400080FFFFFFFF000000000000000000000000000000000000000031
:4026C0000000000000000000000000003026000000000000000000000000000000000000000000000000000000000000000000000000000000000000000000000000000084
:402700000000000000000000000000000C81FF1F000000000000000000000000000000000000000000000000000000000000000000000000000000000000000000000000EE
:402740000000000000000000000000000000000000000000000000000000000000000000000000000000000000000000000000000000000000000000000000000000000059
:402780000000000000000000000000000000000000000000000000000000000000000000000000000000000000000000000000000000000000000000000000000000000019
:4027C00000000000000000000000000000000000000000000000000000000000000000000000000000000000000000000000000000000000000000000000000000000000D9
:402800000000000000000000000000000000000000000000000000000000000000000000000000000000000000000000000000000000000000000000000000000000000098
:020000040003F7
:0200000480007A
:40000000014F004005520040016400403D0001402F010140140301400B0501400507014009090140300A0140340B0140590C0140360D014003150140041701400619014082
:400040000A1B0140124001401C4101400C4201400B43014008460140034701400948014013490140054C0140054D014004500140035101400A4B00680132088078207902A8
:400080008A0D0B010F0312031402160118081B021E032004240126022A082B012E083203340C35033E04580459045C225F0187048C028E04980499069A02A307A401AB03E1
:4000C000AE01B006B201B506B701BE01C043C660C705C818C9FFCAFFCBFFCD10CE70CF0FD008D804D904DA04DB04DC22DD02DF01E010E1BCE210E358E490E55805100604F8
:40010000070209A00A200B400E0810221244162219181D081F02200421202510270228082E222F40312035103A603B803C0845084702540456206D086EA2744877088201C3
:40014000870288408A508D14C080C24FC4AFCAA4CC24CE4CD0C0E2A0E67058205A20850887088C20962097C099089B089C08A420A580A80AAA20AB02B404B604E408E60406
:40018000E84481808B40962097C0A420A580AC08B020E208E401EE089620A420B340E828EE0192509D08A481A710AA01AE08B208B720E82002010701090113021F023302BF
:4001C000360137013F045405580459045B045C135D105F01801082208302864088048A0B8C028E0D968097019C019E0EA304A408A607A820AA10B00FB230B302B440B50160
:40020000B680B704BE01D201D804D904DB04DC33DD20DF0100020401051807020D800F20171818011C201D901E011F012244271A2C8032023340360838183C0159015A885D
:400240006A526B206D406F02812084108A018B02901895409601970299019B409D309E089F0AA203AF04B208B301C0F8C2A0C460CA80CC49CE86D60BE680E8800001020223
:400280000301042008020A010C040E081104122013021610170618081A041B061E032102220C2304260C2A032C102E20300C31013230330634033A083E513F044010410571
:4002C00049FF4AFF4BFF4DA04F0450185280580459045A045B045C125D115F01604062C06440654066C068C06AC06CC06EC087019F01AA01B201B301C010C105C5D0C721CD
:40030000C832C9FFCAFFCBFFCDAFCE0FCF04D018D804D904DA04DC11DD01DF01E040E2C0E440E540E6C0E8C0EAC0ECC0EEC0052006A20C100E600F02100815401608170AA1
:4003400018101C401E2A1F04220827602E03334034103510370A38083C024340474049014A024E02500C52025C405D025E085F2067027401830185028E8092409A20AA4004
:40038000B620C0F0C2F0C4F2CA80CCE8CE82D018D218D6F0D810E410EC40E058EA01EE02A820B610E640E8408E4092509D08A481A710E640848088018D088F109D08A48190
:4003C000A710AA10E050EE02114033283404368039083B803C118310850489028A118C018D01C440CCF0CEF0E210E6805120520256105A025D0263206501832085209202AB
:40040000978099039A109C04A202A310A680A728A810AA02B540D4E0D6C0D8C0E210E620EA80EE80128059048310874097809C04A680A708C410D640E210E4802C0495018D
:4004400097209C04A718A904AD01B310CA20E810EE80502056088A089201B201D406E004EC019201B420EC08520A8E0895019723A718AB01B701D4A0E880010102080508F2
:4004800007020B220F2186088D088F0295019723A710AA02AF08C0F0C2F0E010EA80EE401F105E019201C601D60114408840AF10C404E201000E08040C0E0E0600BF01037E
:4004C000102A000000FEFE00FE00000080020200000000000033330033000000008B8B0080006000007F7F00000000000F0000FF00000000000000000E0018010002000080
:4005000000000000000000000000000000000000000000000000000000000000000000000000000000000000000000000000000000000000000000000000000000000000BB
:40054000000000000000000000000000000000000000000000000000000000000000000000000000000000000000000000000000000000000000000000000000000000007B
:40058000000000000000000000000000000000000000000000000000000000000000000000000000000000000000000000000000000000000000000000000000000000003B
:4005C00000000000000000000000000000000000000000000000000000000000000000000000000000000000000000000000000000000000000000000000000000000000FB
:0200000490006A
:0400000000004005B7
:0200000490105A
:04000000BC90ACAF55
:0200000490303A
:02000000FD41C0
:0200000490402A
:4000000000000000000000000000000000000000000000000000000000000000000000000000000000000000000000000000000000000000000000000000000000000000C0
:400040000000000000000000000000000000000000000000000000000000000000000000000000000000000000000000000000000000000000000000000000000000000080
:400080000000000000000000000000000000000000000000000000000000000000000000000000000000000000000000000000000000000000000000000000000000000040
:4000C0000000000000000000000000000000000000000000000000000000000000000000000000000000000000000000000000000000000000000000000000000000000000
:0200000490501A
:0C00000000012E16106900012E260DAA2A
:00000001FF